:100000000C94DD000C9405010C9405010C94050181
:100010000C9405010C9405010C9405010C94050148
:100020000C9405010C9405010C9405010C94050138
:100030000C9405010C9405010C9405010C94050128
:100040000C94ED060C9405010C9498050C94DB05BA
:100050000C9405010C9405010C9405010C94050108
:100060000C9405010C940501637C777BF26B6FC5E2
:100070003001672BFED7AB76CA82C97DFA5947F0AB
:10008000ADD4A2AF9CA472C0B7FD9326363FF7CC87
:1000900034A5E5F171D8311504C723C31896059A24
:1000A000071280E2EB27B27509832C1A1B6E5AA047
:1000B000523BD6B329E32F8453D100ED20FCB15B32
:1000C0006ACBBE394A4C58CFD0EFAAFB434D33859B
:1000D00045F9027F503C9FA851A3408F929D38F56F
:1000E000BCB6DA2110FFF3D2CD0C13EC5F974417A6
:1000F000C4A77E3D645D197360814FDC222A90881D
:1001000046EEB814DE5E0BDBE0323A0A4906245CA8
:10011000C2D3AC629195E479E7C8376D8DD54EA90D
:100120006C56F4EA657AAE08BA78252E1CA6B4C6D9
:10013000E8DD741F4BBD8B8A703EB5664803F60E32
:10014000613557B986C11D9EE1F8981169D98E9421
:100150009B1E87E9CE5528DF8CA1890DBFE642683A
:1001600041992D0FB054BB1600000007000201009A
:100170000003040600000000000000000102040863
:100180001020408001020408102001020408102001
:10019000040404040404040402020202020203032D
:1001A0000303030300000000250028002B000000CB
:1001B0000000240027002A00970611241FBECFEF5D
:1001C000D8E0DEBFCDBF1DE0A0E0B1E0EAEDF4E194
:1001D00002C005900D92A03EB107D9F71FE0A0EE36
:1001E000BDE001C01D92A93FB107E1F711E0CAEBE4
:1001F000D1E004C02297FE010E949607C83BD107B8
:10020000C9F70E9488040C946B0A0C9400000895AE
:10021000CF93DF93EC0141E850E060E87DE084E5B6
:100220009EE00E94B9011F9288EC8F93DF93CF93D9
:1002300080E99DE09F938F9380EE9DE09F938F9345
:100240000E949A0760EE7DE086E49FE00E94EE0443
:1002500061E08DE00E945204BE0184E0660F771FCA
:100260008A95E1F760507F4F44E45EE084E59EE0CC
:100270000E94A6028DB79EB708960FB6F8949EBF4F
:100280000FBE8DBF6BEB7DE086E49FE0DF91CF91E9
:100290000C94EE04CF93DF9361E08DE00E9419048B
:1002A00060E08DE00E94520440E051EE60E070E0BA
:1002B00086E49FE00E941606C0E0D0E0CE010E94D6
:1002C00008012196C83CD105C9F7DF91CF91089567
:1002D000CF93DF93FC01EB01DA0140962C9138813A
:1002E0002327208311962C9111973981232721836D
:1002F00012962C9112973A812327228313962C91E0
:1003000013973B8123272383349624961496E8176A
:10031000F90721F7DF91CF910895DA01FB01922FC0
:10032000960F892F8E1B843088F08C9180831196D4
:100330008C911197818312968C91129782831396D8
:100340008C911397838334961496EBCFA22FA695A6
:10035000A69584E0A89FD00111242370FA01EA0F2A
:10036000FB1FA60FB71F215018F081918D93FBCF73
:1003700008952F923F924F925F926F927F928F9249
:100380009F92AF92BF92CF92DF92EF92FF920F9324
:100390001F93CF93DF9300D000D0CDB7DEB78C0191
:1003A0004032510521F13CF44031510571F04831A2
:1003B0005105A1F025C0403C510581F0411581E077
:1003C0005807A9F040385105D9F48AE090E0D801E7
:1003D0008D939C9340E1E42EF12C17C08CE090E0CB
:1003E000F8019183808338E1E32EF12C0EC08EE07A
:1003F00090E0D8018D939C9320E2E22EF12C05C071
:10040000F801118210828FEF8AC0D801DC90D3945A
:10041000D29480EFD8228E2C2E2DAB01B8016E5FC6
:100420007F4FC8010E948D019E2C20E030E0CC243B
:10043000C3943E01B5E06B0E711C9BE1592EB22EA8
:10044000622F660F660F762F780D7D1508F066C057
:10045000DE01119680E090E0A801470F511DFA01DE
:10046000E80FF91F3297E081ED93019684309105F2
:10047000B1F7791125C09B2C990C980C990C998196
:10048000EA81F0E0E859FF4F84918C258983EB8164
:10049000F0E0E859FF4FE491EA83EC81F0E0E8599D
:1004A000FF4FE491EB83E92FF0E0E859FF4FE4912F
:1004B000EC83C7FE03C0CC0CC52414C0CC0C12C006
:1004C000E0E2EE16F10471F47F71703159F4DE014F
:1004D0001196EC91F0E0E859FF4FE491ED93A615E9
:1004E000B705B9F7FE01319680E090E05801A60EFD
:1004F000B11C41901A01280E391EB501680F791FF1
:10050000DB0112966C914626D10112964C9201960F
:100510008430910571F72F5F3F4F91CF80E00F90AE
:100520000F900F900F90DF91CF911F910F91FF903F
:10053000EF90DF90CF90BF90AF909F908F907F9083
:100540006F905F904F903F902F9008952F923F9221
:100550004F925F926F927F928F929F92AF92BF92D3
:10056000CF92DF92EF92FF920F931F93CF93DF937F
:10057000CDB7DEB7A2970FB6F894DEBF0FBECDBFE2
:100580008C016A01FC0180819181892B09F40EC1E3
:100590007801F2E0EF0EF11CA701CE0141960E9416
:1005A000680122242394CE0181969AA389A3FBE1BA
:1005B000BF2E422D50E0F8018081918148175907E4
:1005C0000CF081C09E012F5E3F4FDE0114967FE04C
:1005D000A72E7AE065E0E1E1F0E0EC0FFD1FE60F09
:1005E000F11D80806C5F6F70E1E1F0E0EC0FFD1FAA
:1005F000E70FF11D80817C5F7F70E1E1F0E0EC0F9F
:10060000FD1FEA0DF11D9081E4E0AE0EFA2DFF70A2
:10061000AF2EF9019080E92DF0E0E859FF4F94905A
:10062000E82DF0E0E859FF4F8490E82FF0E0E8591A
:10063000FF4F8491E92FF0E0E859FF4F9491692C26
:10064000660C97FC6B24482C440C87FC4B24582EDA
:10065000550C87FD5B24792E770C97FD7B24FD01DB
:100660003397382E38243926362434243082FD013D
:100670003297382E39243926342435243082982470
:10068000FD01319799259525972590838925862504
:1006900087258C932C5F3F4F149689A19AA1281728
:1006A000390709F098CFE4E0440F551FEA95E1F7C8
:1006B0004E0D5F1DBE016F5F7F4FCE0141960E94C0
:1006C0006801239476CFE989F0E0E859FF4FE4917F
:1006D000E98BED89F0E0E859FF4FE491ED8BE98D6E
:1006E000F0E0E859FF4FE491E98FED8DF0E0E85933
:1006F000FF4FE491ED8F8A89EE89F0E0E859FF4FD2
:10070000E491EA8BEA8DF0E0E859FF4FE491EE8B3B
:10071000EE8DF0E0E859FF4FE491EA8FE82FF0E02A
:10072000E859FF4FE491EE8F8B89EB8DF0E0E859AB
:10073000FF4FE491EB8BE82FF0E0E859FF4FE49195
:10074000EB8F8F89EF8DF0E0E859FF4FE491EF8B4D
:10075000E82FF0E0E859FF4FE491EF8F88A1EC8D8E
:10076000F0E0E859FF4FE491E8A3E88DF0E0E859A4
:10077000FF4FE491EC8FEC89F0E0E859FF4FE491F2
:10078000E88FE82FF0E0E859FF4FE491EC8B64E04C
:10079000440F551F6A95E1F74E0D5F1DBE016F5E58
:1007A0007F4FC6010E94680180E001C08FEFA296D2
:1007B0000FB6F894DEBF0FBECDBFDF91CF911F9172
:1007C0000F91FF90EF90DF90CF90BF90AF909F90F0
:1007D0008F907F906F905F904F903F902F900895F3
:1007E000833081F028F4813099F08230A1F00895AF
:1007F0008630A9F08730B9F08430D1F48091800040
:100800008F7D03C0809180008F7780938000089552
:1008100084B58F7702C084B58F7D84BD08958091A3
:10082000B0008F7703C08091B0008F7D8093B000BF
:100830000895CF93DF9390E0FC01E458FE4F24919C
:10084000FC01E057FE4F8491882349F190E0880F26
:10085000991FFC01E255FE4FA591B4918C559E4F16
:10086000FC01C591D4919FB7611108C0F8948C9197
:10087000209582238C93888182230AC0623051F4B0
:10088000F8948C91322F309583238C938881822B1E
:10089000888304C0F8948C91822B8C939FBFDF9146
:1008A000CF9108950F931F93CF93DF931F92CDB7EE
:1008B000DEB7282F30E0F901E859FE4F8491F901A5
:1008C000E458FE4F1491F901E057FE4F04910023C4
:1008D000C9F0882321F069830E94F0036981E02F29
:1008E000F0E0EE0FFF1FEC55FE4FA591B4919FB7BE
:1008F000F8948C91611103C01095812301C0812B64
:100900008C939FBF0F90DF91CF911F910F9108950E
:100910000E9437070E944A01C2EDD5E00E940701FC
:100920002097E1F30E94D205F9CFCF92DF92EF92A8
:10093000FF920F931F93CF93DF936C017A01EB012A
:10094000E60EF71E00E010E0CE15DF0561F06991BC
:10095000D601ED91FC910190F081E02DC601099541
:10096000080F191FF1CFC801DF91CF911F910F918F
:10097000FF90EF90DF90CF9008956115710581F0A1
:10098000DB010D900020E9F7AD0141505109461BF4
:10099000570BDC01ED91FC910280F381E02D09946D
:1009A00080E090E00895DC01ED91FC910190F081F0
:1009B000E02D09940F931F93CF93DF93EC016DE02B
:1009C0000E94D3048C016AE0CE010E94D304800F00
:1009D000911FDF91CF911F910F9108950F931F9356
:1009E000CF93DF93EC010E94BD048C01CE010E94E5
:1009F000DA04800F911FDF91CF911F910F9108951D
:100A0000FC0124853585F901E05CFF4F80819181EF
:100A1000F901EE5BFF4F20813181821B930B8F73B5
:100A200099270895FC0184859585FC01E05CFF4FC2
:100A300040815181FC01EE5BFF4F208131814217E3
:100A4000530741F00190F081E02DE80FF91F8081FC
:100A500090E008958FEF9FEF0895FC0184859585C0
:100A6000FC01E05CFF4F40815181FC01EE5BFF4FD8
:100A7000208131814217530779F0A081B181A80FFD
:100A8000B91F8C91208131812F5F3F4F2F73332706
:100A90003183208390E008958FEF9FEF0895FC014C
:100AA00081A1882329F0A489B5898C9186FFFBCF89
:100AB00011A20895CF93DF93FC0126853785D901D4
:100AC000A05CBF4F8D919C91119701968F739927D0
:100AD000E901CE5BDF4F4881598184179507D9F32F
:100AE0000D90BC91A02DA20FB31F6C93A685B78566
:100AF000A05CBF4F11969C938E93A689B7892C91C9
:100B000081E090E0078C02C0880F991F0A94E2F7F9
:100B1000282B2C9381E081A30488F589E02D808126
:100B20008064808381E090E0DF91CF910895089503
:100B30001F920F920FB60F9211242F933F934F9352
:100B40008F939F93EF93FF938091C00082FD1CC011
:100B50004091C6008091EC0F9091ED0F01968F733C
:100B600099272091EE0F3091EF0F8217930771F0C4
:100B7000E091EC0FF091ED0FE455F04F408390932E
:100B8000ED0F8093EC0F02C08091C600FF91EF91B2
:100B90009F918F914F913F912F910F900FBE0F908A
:100BA0001F90189586E49FE00E940005892B11F0A4
:100BB0000C94970508951F920F920FB60F9211246F
:100BC0002F933F938F939F93EF93FF932091A80FC1
:100BD0003091A90F8091AA0F9091AB0F2817390778
:100BE00031F48091C1008F7D8093C10014C0E091E9
:100BF000AA0FF091AB0FE859F04F20818091AA0F16
:100C00009091AB0F01968F7399279093AB0F8093C0
:100C1000AA0F2093C600FF91EF919F918F913F9172
:100C20002F910F900FBE0F901F901895CF92DF92CB
:100C3000EF92FF92CF93DF93EC016A017B014115A4
:100C400081EE580761057105F9F0EC89FD8981E0B5
:100C500090E008A002C0880F991F0A94E2F78083F1
:100C600060E079E08DE390E0A70196010E947207B1
:100C700021503109410951095695479537952795D6
:100C8000211580E1380798F0EC89FD89108260E831
:100C900074E88EE190E0A70196010E94720721504E
:100CA0003109410951095695479537952795E889A6
:100CB000F9893083EA89FB89208319A2EE89FF89AB
:100CC000408181E090E09C010C8C02C0220F331F18
:100CD0000A94E2F7422B4083EE89FF8940819C0110
:100CE0000D8C02C0220F331F0A94E2F7422B40837F
:100CF000EE89FF8940819C010E8C02C0220F331FB8
:100D00000A94E2F7422B4083EE89FF8920810F8C01
:100D100002C0880F991F0A94E2F78095822380838E
:100D2000DF91CF91FF90EF90DF90CF9008951092D8
:100D3000490F1092480F88EE93E0A0E0B0E0809356
:100D40004A0F90934B0FA0934C0FB0934D0F83ED30
:100D50009DE09093470F8093460F8CEA9FE090931D
:100D6000530F8093520F88E69FE09093550F809326
:100D7000540F85EC90E09093570F8093560F84ECBE
:100D800090E09093590F8093580F80EC90E09093EF
:100D90005B0F80935A0F81EC90E090935D0F8093EE
:100DA0005C0F82EC90E090935F0F80935E0F86EC77
:100DB00090E09093610F8093600F84E08093620FC6
:100DC00083E08093630F87E08093640F85E08093D6
:100DD000650F81E08093660F08951F920F920FB602
:100DE0000F9211242F933F938F939F93AF93BF93B1
:100DF0008091F10F9091F20FA091F30FB091F40F49
:100E00003091F00F23E0230F2D3720F40196A11D20
:100E1000B11D05C026E8230F0296A11DB11D209328
:100E2000F00F8093F10F9093F20FA093F30FB09314
:100E3000F40F8091F50F9091F60FA091F70FB091FC
:100E4000F80F0196A11DB11D8093F50F9093F60F39
:100E5000A093F70FB093F80FBF91AF919F918F912F
:100E60003F912F910F900FBE0F901F90189578947F
:100E700084B5826084BD84B5816084BD85B582609F
:100E800085BD85B5816085BDEEE6F0E0808181603D
:100E90008083E1E8F0E0108280818260808380813D
:100EA00081608083E0E8F0E0808181608083E1EB15
:100EB000F0E0808184608083E0EBF0E080818160FD
:100EC0008083EAE7F0E080818460808380818260B3
:100ED000808380818160808380818068808310929C
:100EE000C1000895A1E21A2EAA1BBB1BFD010DC073
:100EF000AA1FBB1FEE1FFF1FA217B307E407F507CA
:100F000020F0A21BB30BE40BF50B661F771F881FA5
:100F1000991F1A9469F760957095809590959B013B
:100F2000AC01BD01CF010895EE0FFF1F0590F491B4
:100F3000E02D0994AEE0B0E0E0EAF7E00C94420A5C
:100F40000D891E8986E08C831A8309838FEF9FE7C2
:100F50009E838D83AE01475E5F4F6F89788DCE0192
:100F600001960E94BC07EF81F885E00FF11F108207
:100F70002E96E4E00C945E0AACE0B0E0E2ECF7E020
:100F80000C94340A7C016B018A01FC0117821682E1
:100F9000838181FFBDC1CE0101964C01F701938190
:100FA000F60193FD859193FF81916F01882309F4E8
:100FB000ABC1853239F493FD859193FF81916F0127
:100FC000853229F4B70190E00E94A409E7CF512CA3
:100FD000312C20E02032A0F48B3269F030F48032E2
:100FE00059F0833269F420612CC08D3239F080339E
:100FF00039F4216026C02260246023C0286021C00B
:1010000027FD27C030ED380F3A3078F426FF06C0B0
:10101000FAE05F9E300D1124532E13C08AE0389EF3
:10102000300D1124332E20620CC08E3221F426FDA7
:101030006BC1206406C08C3611F4206802C088366B
:1010400041F4F60193FD859193FF81916F01811128
:10105000C1CF982F9F7D9554933028F40C5F1F4F7C
:10106000FFE3F9830DC0833631F0833771F08335A8
:1010700009F05BC022C0F801808189830E5F1F4F99
:1010800044244394512C540115C03801F2E06F0EF2
:10109000711CF801A080B18026FF03C0652D70E0AF
:1010A00002C06FEF7FEFC5012C870E9499092C01C8
:1010B00083012C852F77222E17C03801F2E06F0EA6
:1010C000711CF801A080B18026FF03C0652D70E07F
:1010D00002C06FEF7FEFC5012C870E948E092C01A3
:1010E0002C852068222E830123FC1BC0832D90E0D9
:1010F00048165906B0F4B70180E290E00E94A409B6
:101100003A94F4CFF50127FC859127FE81915F0188
:10111000B70190E00E94A40931103A94F1E04F1A0F
:1011200051084114510471F7E5C0843611F0893635
:1011300039F5F80127FF07C06081718182819381B1
:101140000C5F1F4F08C060817181882777FD8095F3
:10115000982F0E5F1F4F2F76B22E97FF09C09095E4
:101160008095709561957F4F8F4F9F4F2068B22E6D
:101170002AE030E0A4010E94D609A82EA81844C095
:10118000853729F42F7EB22E2AE030E025C0F22FD9
:10119000F97FBF2E8F36C1F018F4883579F0B4C0CE
:1011A000803719F0883721F0AFC02F2F2061B22E81
:1011B000B4FE0DC08B2D8460B82E09C024FF0AC078
:1011C0009F2F9660B92E06C028E030E005C020E1D0
:1011D00030E002C020E132E0F801B7FE07C06081D4
:1011E0007181828193810C5F1F4F06C06081718184
:1011F00080E090E00E5F1F4FA4010E94D609A82E48
:10120000A818FB2DFF77BF2EB6FE0BC02B2D2E7F0F
:10121000A51450F4B4FE0AC0B2FC08C02B2D2E7EDB
:1012200005C07A2C2B2D03C07A2C01C0752C24FF0D
:101230000DC0FE01EA0DF11D8081803311F4297E7D
:1012400009C022FF06C07394739404C0822F86786D
:1012500009F0739423FD13C020FF06C05A2C7314A9
:1012600018F4530C5718732C731468F4B70180E208
:1012700090E02C870E94A40973942C85F5CF7314F9
:1012800010F4371801C0312C24FF12C0B70180E3DD
:1012900090E02C870E94A4092C8522FF17C021FF13
:1012A00003C088E590E002C088E790E0B7010CC079
:1012B000822F867859F021FD02C080E201C08BE2C6
:1012C00027FD8DE2B70190E00E94A409A51438F42F
:1012D000B70180E390E00E94A4095A94F7CFAA9442
:1012E000F401EA0DF11D8081B70190E00E94A4098C
:1012F000A110F5CF332009F451CEB70180E290E080
:101300000E94A4093A94F6CFF7018681978102C022
:101310008FEF9FEF2C96E2E10C94500AFC010590B0
:10132000615070400110D8F7809590958E0F9F1FE7
:101330000895FC016150704001900110D8F780952C
:1013400090958E0F9F1F08950F931F93CF93DF9358
:10135000182F092FEB018B8181FD03C08FEF9FEFC9
:1013600020C082FF10C04E815F812C813D814217D9
:1013700053077CF4E881F9819F012F5F3F4F398348
:101380002883108306C0E885F985812F0995892B6C
:1013900029F72E813F812F5F3F4F3F832E83812F7F
:1013A000902FDF91CF911F910F910895FA01AA27F5
:1013B000283051F1203181F1E8946F936E7F6E5F98
:1013C0007F4F8F4F9F4FAF4FB1E03ED0B4E03CD046
:1013D000670F781F891F9A1FA11D680F791F8A1F29
:1013E000911DA11D6A0F711D811D911DA11D20D090
:1013F00009F468943F912AE0269F11243019305D4A
:101400003193DEF6CF010895462F4770405D41933A
:10141000B3E00FD0C9F7F6CF462F4F70405D4A3387
:1014200018F0495D31FD4052419302D0A9F7EACF4F
:10143000B4E0A6959795879577956795BA95C9F77E
:1014400000976105710508959B01AC010A2E069471
:101450005795479537952795BA95C9F7620F731F2A
:10146000841F951FA01D08952F923F924F925F9267
:101470006F927F928F929F92AF92BF92CF92DF92A4
:10148000EF92FF920F931F93CF93DF93CDB7DEB709
:10149000CA1BDB0B0FB6F894DEBF0FBECDBF09949D
:1014A0002A88398848885F846E847D848C849B84F4
:1014B000AA84B984C884DF80EE80FD800C811B8102
:1014C000AA81B981CE0FD11D0FB6F894DEBF0FBE31
:0A14D000CDBFED010895F894FFCFA1
:1014DA0025EB8C48FF89CB854FC09081CC47EDFC2A
:1014EA008619B214FE6592D48BFCEA9C9D8E324416
:1014FA00D7D7E9F1F7DE60568DE989073F3D1639FE
:10150A0001803CD108D88D73AFEA79C81E4783C6DB
:10151A0095313903C418F12B4C1A34506D7329D202
:10152A000F40C4196FE2D7871A99681609C3E77E74
:10153A00177D649BA53953A68820A20A178FEF57F7
:10154A0019C7F35C4ABE2EA0D897B741714D0380E4
:10155A00F8FDCD0634D5C6024CDB95CB074DC84BFA
:10156A004C2B141E2467072DC439F0FCD2600D0AD7
:10157A00177C51877998CADC94A08CC15E3CE998A3
:10158A0052736182ECDC67620AB660E952D6C6C25F
:10159A0047E7B0360F8591AA1476B016E58DF17239
:1015AA0061B5540A60B73D38D995E760F9D319F1A6
:1015BA008E8DD4742B86CDB8BB8F18FB89C2C735E4
:1015CA0045A465F815284DDBB1712FCDA8CE2D574E
:1015DA00909CEA2DC37442CE2E809D3F4B23B5DDED
:1015EA002182D453303620FD9C37D21F1CDE4A8814
:1015FA006D63200854CD324FA9406CD31871EA1498
:10160A002C0F9EDB8EF313FB9AEB5687E335AF6EF6
:10161A00BCF32264E42093C318D3E55EA6AFE78542
:10162A004F3F7157A02ACAC2D8E29E914440BCF4E7
:10163A00CE91A7A3D19C9626A9CACD4699E6F030A9
:10164A00B2BE2C69B60056F710130970DC336F8AE4
:10165A007B44970EBF15AE7C83B858D0AE36CF47C1
:10166A00FC0ECD8F9935D4F9BAD572EE9D2C2596FC
:10167A00DBB64C0C783B9ACCC7D7A77D2BCC72260D
:10168A005B70FD45E2A1AB9AB8C54934591B2B01E1
:10169A00527F5EE09A541E674096623483468C27D6
:1016AA00E653EFB03DC60DA41796C27ADCF9EA5F9D
:1016BA003589A9B9586DF6DDF4CC526A8B69247064
:1016CA00909E736AD4B923A95102D55DA46D2E5098
:1016DA001B481C82E38DA97924E4A812E1A63FF3F2
:1016EA002E68D9E770FF6502621CCECBBAAA1AE847
:1016FA00953A7F90DC25E9EDE8EA0B9606608E6460
:10170A0057CBA3BF7B206E5BB1E67A809661C6A4F5
:10171A00921B9CE53466F2DE79322E07D510E79DDE
:10172A008BBDFBFA0E681E88A8B09E97C2DCC0E784
:10173A008C91FAA10A1CE9CB855185792A56B439CC
:10174A00384E57FA75D18AC830F5138C994D100462
:10175A00D8769BB24483BA0C824C60603D8F64FA9F
:10176A004A8C929EBB85905F60BCABEC1FEB632CEE
:10177A0018BE4F15934D2104277C43A2A22A4ED2AC
:10178A0066267AB07AD1FE05FAE6DBF58828C50521
:10179A0007CE25694E211BB34D1EABAE094303C3C9
:1017AA003661BFE3501CA5C0A5DD924E67C6DC3486
:1017BA008AA02E3F7BDD92A49DF8271C361DB767B1
:1017CA005A9BBC6A8C91475B877CD3B833A0CC3ECA
:1017DA0066B3601E9605DB5F6996CC746D16E69259
:1017EA00DD1D12347A1F31E2D379DDADEBB3560F2A
:1017FA00C7B09CD31BFD2B934F4658FAD60BE5C1B5
:10180A005D0FB3E2562D73BFAA966D67D2A8AC904E
:10181A00116B58E680F0615277C7F40EA41AA081C2
:10182A00B058F516225E15C4C3B07692618B8B79D7
:10183A00B44C44ADC059280707F6213A07A284855B
:10184A00BD7667B24CADFE6095727D5C47DCEF9960
:10185A00E9F761010D7426D59BA6D4A101FE9FF577
:10186A007172261CCB72631FB34243A04AA0E105E2
:10187A0000A56E48AB6C18907D60E0299815F99B1D
:10188A002E233E443E7D20F92D586673AA399920AD
:10189A006821F686C1331F87FB8D7F839C8F1D428B
:1018AA00EF3DD3603AD2E8FAA21EB960B1FC2E53DA
:1018BA002914F82878FE6EB2F8F684097C80DA9545
:1018CA00FB4A95F6A177A6252B67215FA9C745C6CE
:1018DA0017D66A271F2526B8579CA4420AD4801017
:1018EA001E83FCCE6CBB3579F0F376C531CA6BAE7C
:1018FA009BA1484427A0EF618721BE0E4DAB3D5501
:10190A00240CFAB5761A52E5FA7FE30CE96319E575
:10191A0081ECA96B3737C08FDC283C46B1B2A0DA1C
:10192A00143426C1D0B9345913DE40FF2A2F9561E9
:10193A00015926FA8C7012CDCDD8ECDAD327627F02
:10194A000F25E6E0A4627FF3EE01209EE5077032E0
:10195A00B2FAA02BA9C5016176B31E52B151D2DFEA
:10196A00C7FD9512AEACDB89844DFF3F975FF3BB91
:10197A00E57D40D29F8154CEE9443619D39BFA388B
:10198A005C08B76D4CAEB10B88BD4A9758D9D2D214
:10199A00056FAA2E15B37549AA8D92972DDF7D344E
:1019AA00A1B68EB96FBDA8F148C11602D601483357
:1019BA00C770D74D3E30002A2703B92B35ABCA6210
:1019CA00F5614BBB424A5B051AC31F0B83B6810DF7
:1019DA003B7CB8D1882684464C4905CF54BB1FDAD4
:1019EA0007EB42A0AECB522C4025AFC9DA540FC147
:1019FA0034C5C2591C13EB1105EDCF8AFE9D91D156
:101A0A00AE0711F2563D40071DB71C74E32BE237AF
:101A1A00E805325CBFB469A2E2D34DA5D9B6042B5E
:101A2A008B1D4CD9A0B2E8B3AA97737D592BFE72CD
:101A3A007368585F1C4072D6FE3A587F33960A6B19
:101A4A001FF40967869E43928C494A5BC1D535AA21
:101A5A008689A4F6D7BB08B5D7126A1543FD0E14BA
:101A6A00EB7CD5092AC2146B903A4D2A234B9CEA87
:101A7A005522ACEAF6DCD2881E40CD12A6F48BB809
:101A8A00B4D34CC4ED19E863451F3B3E1D427B208D
:101A9A0047F9BCFC5DC89B61DD44263C61F60943FD
:101AAA004E3F14A3B7F39CAD5CB87A3304CFCB1F77
:101ABA00E44CB4FA2653D06FE44A469AE4B91E635A
:101ACA00C02692DF29F25F39B0AA71F2B49640C6F5
:101ADA00BDBC6D609B009A32F614FA1AC165CDE856
:101AEA0012BCFDD2E63B75713EF2F7A69744C5BD1E
:101AFA0057C213F7A41195CD6A78F39AF1A0088812
:101B0A0094EE445236F8D57FE7DDF7CA59175EDA04
:101B1A000DFE8BAA8AD8182FF9C4ABDB798D060281
:101B2A00435DEA849C23E5D266CDAE4E6986DB50DE
:101B3A0094973FE3C70615C0325A09695CC3F25548
:101B4A00EF21C77988E73321E77E63BD07FD3BA90B
:101B5A001B33287AC7642D5E89EFD82E793A15B6D9
:101B6A00009393551B61E8EEEA955EEF92C3FA2360
:101B7A005F1D6716B8F70A2A481F8C5287D7883D17
:101B8A0017EE22DEFB8337F06AC4F00F18DE3E6AD6
:101B9A00791AF462ED2FD7E8A3F490D7EFDACE578B
:101BAA00B918B73134188FC349AE9442DE0C998004
:101BBA0061E2CD8B5A18F3366BFC69AFCD7728BB3F
:101BCA00DFE6F94F59E91FEE38F221A6DCEB948ED5
:101BDA0009EA43514F83AFC6FEAA8594B9BBB6CD75
:101BEA00183AEE4FA4D0BA333FC953D8D27837F453
:101BFA00CEC6741B17B545C417AE27424D6A9A184C
:101C0A007F915701ADBA95EF11B821AB4BE2026053
:101C1A005A539A9A73B43707BEE39F4FDCCCAE5738
:101C2A00C645375C62D7D54A8F758E38D701D4CB73
:101C3A004CEFDA923EAD41341C57269461B36E3BA9
:101C4A005EC00EE1342C10C06D6DFB9ED2E40A2DED
:101C5A00D84E67633B61AAC0055A4C37F12A14EE85
:101C6A0058C4125CB1D38F11BD877CE7C03782DAC2
:101C7A00F38410CD441E34D4A462BBF2E41F6CA3D7
:101C8A00A03233052180091FA358BC268B2CAB0731
:101C9A00BE70B8605DB468982BB30A5E31127C8A54
:101CAA003DA78687CF8C738003338FC3513B428F06
:101CBA003DC013AC573D1578803F5ED481ED54EAA0
:101CCA00BCCC168E98AEECEB6820D0C63698CDFF09
:101CDA00D9A3399FFA270E71DDB06E0D138F61A952
:101CEA00A3197DB322962177633DCE87A08343DF74
:101CFA0078B960AED9955CFF6364543A40284E4E79
:101D0A00683EBE2F1BC7F8AA0E5DB392CE0AA3B1D6
:101D1A00DD4FF9D98405E964E8D69DFBB5D0481DA5
:101D2A0026664EF8362AE440442C655449B250B22D
:101D3A0023E6C88F278271A3614F0F8FDE42A2D399
:101D4A0079DD12E64A7C9299913125142834EE976E
:101D5A00124FB3A0251E28B2C944FE508F3FC0734C
:101D6A00DB1469B697061800F8FEB0F5F2D09CD8D5
:101D7A00F681C915004CA0A851531E57B521D2EEC1
:101D8A001683223158C6A5FAF9A18C254FC1FA0645
:101D9A00CF5C03FC2055AC9D2EF7C3421C7CB95482
:101DAA002BDE5D14B49F19F9E93FB43BEEF8117DBF
:101DBA0096B60D1E973264954703970C71CDF607B8
:101DCA00E9341E9A08677C6054D149A738BC76FD6D
:101DDA001941DFF8E3746B9B67F2925681A28291F4
:101DEA00D50BDD353BD20B6BD3835300DD55B35B8B
:101DFA00F1A0FED654E3D17A858B4509AE4ADDA01F
:101E0A00A62A3F97FAA83F3F9F12A80570DCCF6821
:101E1A00EA52CAA899C4B15271D62E0D1550F6D1FC
:101E2A005E7031338E9E0AD50487B63BD46229236D
:101E3A0072B87E8DFA0BB46D4295517A5E7EA2BD60
:101E4A00DB55F33CE3F3DC625BCA88CBD19B99D6C2
:101E5A00A48E835C54C82BE308B791F36E3C74A03C
:101E6A0062539BDFB43250DBEA7C6ECF1A25987737
:101E7A00B8A8B4A6932C943F9541C4DC75924490BB
:101E8A007D4E3BB82CA327FEEE3D204335BE4BF5D5
:101E9A00882221EEDC194301E288EF591BFE799D65
:101EAA00D9FC4D0ABD904FCA4CE1809E03D1C02691
:101EBA007A43FB9E151A5F0A45A1248974EE80E7CE
:101ECA0037EB6D450AF40327CD259019EB7B2E8756
:101EDA00AB80B88E3737B4CEE1EE35BCFC008EFE4F
:101EEA003C42635F27470790C2BD45E6B23A73CFCB
:101EFA008E684D8CE50B4FDF6EF1A2066AC5FAD5E6
:101F0A006BACC6488C6EAE52079DBC52492ED6D4D5
:101F1A0061AF7758C9CCD7F92DA47ED7A725862BD0
:101F2A00BA7601539D7A30B72D08221D00CF1304CB
:101F3A0047F681889A285920466007F426D1FB9DE6
:101F4A00F2E603CAB25B90F5B1796B6E2A46089F36
:101F5A0019A276F9B6E1E06C4605BF74655E18AE63
:101F6A00141680C5169BE7E51970E4402D26B9348E
:101F7A003420C5CF85A1C0B535B58CFE5076602119
:101F8A0033B776D036690C550A51FB4EC7FE541D3D
:101F9A000C3F8746523FFE40EAAC4574CBEF587D72
:101FAA00A20EBB66D8EA2118FB03299E6796B5667E
:101FBA0069605B5B52E176A46C0673A6EDF0E29F62
:101FCA003E792FBE22472A94715AB21602BF6980FF
:101FDA005C6705C8B4095E610B6228DB4C57EBBD30
:101FEA0068829652DDE9E22F1D7A5FE250777F71AF
:101FFA007F814B01B4DC7140CBE5CE6BBE4C302403
:10200A00310E499573A04780AE1850A590B4445C30
:10201A00DA6607BC09A23F42FD44798DC2DB6380C0
:10202A0022C610A511A67F520EA5BE80FBE9A1B15A
:10203A00CD639FB9BA7CC94C1CCC35BA9FDE0DE979
:10204A00265B57ED7B3B76F7AE3ED6BD274782BB74
:10205A0019B9207D9EB4745BA9CEB974ADF1551936
:10206A0049CA86021E4DCE5B602A12D3D9D8B8AAB5
:10207A00848B18F296748684CF9C359E6770EE1511
:10208A009B85A3C852EE30ECE5B3FC5E18CC6AA877
:10209A00EBD59CA8AF979CFCD459A505F01771C441
:1020AA00948DB81D729CF2DBB69CBFE7D13CC5D3B8
:1020BA00C84F64B0345C5C606AE539DE275A4E3D2D
:1020CA006AEE3985CC99CFFF7A5D25ACBC8F5C2945
:1020DA003F0782AE4BB44299E4F0EFA583197754D7
:1020EA0076C0803451AEE3D491367FA34E3CB264BD
:1020FA00AE726AE697C100208C685A4B657219B7AE
:10210A0045050ED7025B40F8E3E257BA1873AD0EE5
:10211A004DF5F0D6205BC8F169A6D39498C79BA564
:10212A00E9DF65D21036E0F634F5C9056E42FED015
:10213A00E6F9DE6DB27002592087D955A442F949F1
:10214A000BA3AAA73473DDD4FB94C987B4EEC5B92F
:10215A00000102030405060708090A0B0C0D0E0FFD
:10216A00456E6372797074696E6720706C61696E0E
:10217A007465787420696E6465783A202564206FE6
:10218A007574206F6620256420000046696E6973A5
:10219A0068656420656E6372797074696F6E000099
:1021AA000000005A05950400052D0512054F05008B
:00000001FF
