:100000000C945D000C9485000C9485000C94850084
:100010000C9485000C9485000C9485000C9485004C
:100020000C9485000C9485000C9485000C9485003C
:100030000C9485000C9485000C9485000C9485002C
:100040000C9457070C9485000C949A050C94CC05DD
:100050000C9485000C9485000C9485000C9485000C
:100060000C9485000C94850000000008000201003B
:100070000003040700000000000000000102040863
:100080001020408001020408102001020408102002
:10009000040404040404040402020202020203032E
:1000A0000303030300000000250028002B000000CC
:1000B0000000240027002A00FC0511241FBECFEFFA
:1000C000D8E0DEBFCDBF11E0A0E0B1E0EEEAF5E19F
:1000D00002C005900D92AE34B107D9F722E0AEE42C
:1000E000B1E001C01D92AA30B207E1F710E0CAEBFF
:1000F000D0E004C02297FE010E940008C83BD1074F
:10010000C9F70E9448070C94D50A0C9400004EE0F1
:1001100003C04CE001C04AE02F923F924F925F92A1
:100120006F927F928F929F92AF92BF92CF92DF9207
:10013000EF92FF920F931F93CF93DF938F939F9331
:10014000DB01FC01842FE89481909190A190B19003
:10015000C190D190E190F190019111912191319153
:1001600041915191619171919BE1F5E08A3009F4DF
:100170002D9A000000000000000000000D90802477
:100180000D9090240D90A0240D90B0240D90C024CB
:100190000D90D0240D90E0240D90F0240D900025BA
:1001A0000D9010250D9020250D9030250D904025A7
:1001B0000D9050250D9060250D9070252D982EF5F1
:1001C000FF91EF9181929192A192B192C192D192BD
:1001D000E192F192019311932193319341935193C1
:1001E00061937193DF91CF911F910F91FF90EF90E9
:1001F000DF90CF90BF90AF909F908F907F906F9047
:100200005F904F903F902F9008958A9509F46894DD
:10021000E82D8490EC2DC490E02F0491E42F4491BC
:10022000E92D2490ED2D9490E12FD490E52F149199
:10023000522DEA2D2490EE2D3490E22FA490E62F3B
:10024000E490222D632DEB2D2490E72FB490E32F23
:100250007491EF2D3491F22C0EF488CF0A2C0B24DC
:10026000402C282C89240824880C08F48926802412
:100270008224392C3A24330C08F439263024932470
:10028000440C08F449264024A4242B24220C08F40E
:1002900029262024B2240E2C0F24402C2C2CCD24D3
:1002A0000C24CC0C08F4C926C024C2243D2C3E24C6
:1002B000330C08F439263024D324440C08F449269E
:1002C0004024E4242F24220C08F429262024F2249C
:1002D000022E0326402C202E01270026000F08F4B2
:1002E000092700250225312E3226330C08F4392641
:1002F00030241325440C08F44926402424252326C1
:10030000220C08F4292620243225062E0726402C0C
:10031000242E45270426440F08F44927402542256A
:10032000352E3626330C08F4392630245325440C58
:1003300008F44926402464252726220C08F429269F
:100340002024722513CFAB0171E060E007C0AB0140
:1003500070E060EC03C0AB01772760E8EF92FF929A
:100360000F931F93CF93DF93FA01EA01DC01769597
:10037000679566956695262F0D9001922A95E1F76F
:100380006695669563FB362F762F795F770F770F2B
:10039000DF011497262FE0E0F5E07F0111E04D9199
:1003A0005D918D919D913217B1F05EF5022F07702E
:1003B000043039F5F701E40FF11D4491F701E50F21
:1003C000F11D5491F701E80FF11D8491F701E90F38
:1003D000F11D949116C0360FF701E40FF11D049141
:1003E000F701E50FF11D4491F701E80FF11D54915C
:1003F000F701E90FF11D8491902F4127110F08F4A7
:100400001BE1FD0109900426019209900526019245
:100410000990082601920990092601922395271731
:1004200009F0BDCFE894DF91CF911F910F91FF901C
:10043000EF900895000000000000000000000000A0
:1004400000000000000000000000000000000000AC
:10045000000000000000000000000000000000009C
:10046000000000000000000000000000000000008C
:10047000000000000000000000000000000000007C
:10048000000000000000000000000000000000006C
:10049000000000000000000000000000000000005C
:1004A000000000000000000000000000000000004C
:1004B000000000000000000000000000000000003C
:1004C000000000000000000000000000000000002C
:1004D000000000000000000000000000000000001C
:1004E000000000000000000000000000000000000C
:1004F00000000000000000000000000000000000FC
:10050000637C777BF26B6FC53001672BFED7AB76D0
:10051000CA82C97DFA5947F0ADD4A2AF9CA472C07B
:10052000B7FD9326363FF7CC34A5E5F171D83115E8
:1005300004C723C31896059A071280E2EB27B27509
:1005400009832C1A1B6E5AA0523BD6B329E32F8481
:1005500053D100ED20FCB15B6ACBBE394A4C58CF79
:10056000D0EFAAFB434D338545F9027F503C9FA84D
:1005700051A3408F929D38F5BCB6DA2110FFF3D21B
:10058000CD0C13EC5F974417C4A77E3D645D1973CF
:1005900060814FDC222A908846EEB814DE5E0BDBC9
:1005A000E0323A0A4906245CC2D3AC629195E47900
:1005B000E7C8376D8DD54EA96C56F4EA657AAE085A
:1005C000BA78252E1CA6B4C6E8DD741F4BBD8B8AF5
:1005D000703EB5664803F60E613557B986C11D9E5B
:1005E000E1F8981169D98E949B1E87E9CE5528DFD2
:1005F0008CA1890DBFE6426841992D0FB054BB16FE
:1006000026E040E855E260E070E084E691E00E9478
:10061000380561E08DE00E94E60360E08DE00E9415
:100620001F041092630167E171E084E691E00C948D
:100630008A06CF92DF92EF92FF920F931F93CF9390
:10064000DF936C01C0E0D0E083E2E82E81E0F82E79
:100650000EE411E0F60181916F011F928F93FF92DA
:10066000EF921F930F930E9404086EE471E084E6FA
:1006700091E00E947D0621960F900F900F900F90B1
:100680000F900F90C031D10529F784E691E0DF91FA
:10069000CF911F910F91FF90EF90DF90CF900C942E
:1006A0008606CF93DF9384E691E00E9455041816E6
:1006B0001906DCF580915201803180F484E691E0E6
:1006C0000E946E048093160190915201E92FF0E090
:1006D000ED5AFE4F80839F5F9093520180915201AB
:1006E000803109F7C0E0D0E0F8944AE050E0BE0164
:1006F00084E691E00E943F0769E271E084E691E0C0
:100700000E947D0683E591E00E94190363E571E094
:1007100086E091E00E94980310925201789421960D
:10072000C83E83E0D80701F7BECFDF91CF9108958F
:100730000F931F93CF93DF93CDB7DEB7C05BD10983
:100740000FB6F894DEBF0FBECDBF8B01BE016F5F49
:100750007F4F0E94AB01BE016F5F7F4FC8010E94B7
:100760008B00C055DF4F0FB6F894DEBF0FBECDBF74
:10077000DF91CF911F910F910895833081F028F47C
:10078000813099F08230A1F008958730A9F0883047
:10079000B9F08430D1F4809180008F7D03C08091C6
:1007A00080008F7780938000089584B58F7702C092
:1007B00084B58F7D84BD08958091B0008F7703C08C
:1007C0008091B0008F7D8093B0000895CF93DF9328
:1007D00090E0FC01E458FF4F2491FC01E057FF4FEB
:1007E0008491882349F190E0880F991FFC01E2551C
:1007F000FF4FA591B4918C559F4FFC01C591D491A9
:100800009FB7611108C0F8948C91209582238C9336
:10081000888182230AC0623051F4F8948C91322F7F
:10082000309583238C938881822B888304C0F8942D
:100830008C91822B8C939FBFDF91CF9108950F9362
:100840001F93CF93DF931F92CDB7DEB7282F30E0F1
:10085000F901E859FF4F8491F901E458FF4F1491D1
:10086000F901E057FF4F04910023C9F0882321F0DC
:1008700069830E94BD036981E02FF0E0EE0FFF1F46
:10088000EC55FF4FA591B4919FB7F8948C916111ED
:1008900003C01095812301C0812B8C939FBF0F90C3
:1008A000DF91CF911F910F910895FC01818D228DD1
:1008B00090E0805C9F4F821B91098F739927089568
:1008C000FC01918D828D981731F0828DE80FF11D1A
:1008D000858D90E008958FEF9FEF0895FC01918D35
:1008E000828D981761F0828DDF01A80FB11D5D9692
:1008F0008C91928D9F5F9F73928F90E008958FEF00
:100900009FEF089582EF95E0892B49F080E090E019
:10091000892B29F00E94F20581110C9400000895A2
:10092000FC01848DDF01A80FB11DA35ABF4F2C918C
:10093000848D90E001968F739927848FA689B7895B
:100940002C93A089B1898C9180648C93938D848D34
:10095000981306C00288F389E02D80818F7D808303
:100960000895CF93DF93EC01888D8823C9F0EA893D
:10097000FB89808185FD05C0A889B9898C9186FD98
:100980000FC00FB607FCF5CF808185FFF2CFA88995
:10099000B9898C9185FFEDCFCE010E949004E7CFFD
:1009A000DF91CF910895CF92DF92FF920F931F9323
:1009B000CF93DF931F92CDB7DEB76C0181E0D601F4
:1009C00058968C9358975B969C915B975C968C910C
:1009D0005C97981307C05096ED91FC9151978081D8
:1009E00085FD2EC0F601038D10E00F5F1F4F0F73C2
:1009F0001127F02EF601848DF81211C00FB607FCF6
:100A0000F9CFD6015096ED91FC915197808185FFE9
:100A1000F1CFC60169830E9490046981EBCF838D79
:100A2000E80FF11DE35AFF4F6083D6015B960C93EC
:100A30005B975296ED91FC915397808180620CC038
:100A4000D6015696ED91FC91579760835096ED91A3
:100A5000FC91519780818064808381E090E00F90C9
:100A6000DF91CF911F910F91FF90DF90CF9008956C
:100A7000BF92CF92DF92EF92FF92CF93DF93EC0180
:100A80006A017B01B22EE889F98982E080834115F1
:100A900081EE580761057105A1F060E079E08DE312
:100AA00090E0A70196010E94DC072150310941091D
:100AB00051095695479537952795211580E13807B7
:100AC00098F0E889F989108260E874E88EE190E096
:100AD000A70196010E94DC07215031094109510903
:100AE0005695479537952795EC85FD853083EE859E
:100AF000FF852083188EEC89FD89B082EA89FB8905
:100B0000808180618083EA89FB898081886080831D
:100B1000EA89FB89808180688083EA89FB898081FA
:100B20008F7D8083DF91CF91FF90EF90DF90CF900A
:100B3000BF9008951F920F920FB60F9211242F931A
:100B40008F939F93EF93FF93E0917401F091750160
:100B50008081E0917A01F0917B0182FD12C0908149
:100B600080917D018F5F8F7320917E01821751F0FC
:100B7000E0917D01F0E0EC59FE4F958F80937D016F
:100B800001C08081FF91EF919F918F912F910F90E4
:100B90000FBE0F901F9018951F920F920FB60F92D5
:100BA00011242F933F934F935F936F937F938F9372
:100BB0009F93AF93BF93EF93FF9384E691E00E94DE
:100BC0009004FF91EF91BF91AF919F918F917F9191
:100BD0006F915F914F913F912F910F900FBE0F90AA
:100BE0001F90189584E691E00E94550421E0892B1E
:100BF00009F420E0822F0895109267011092660197
:100C000088EE93E0A0E0B0E08093680190936901E2
:100C1000A0936A01B0936B0180E391E0909365012A
:100C20008093640185EC90E0909371018093700152
:100C300084EC90E0909373018093720180EC90E0DB
:100C4000909375018093740181EC90E0909377010B
:100C50008093760182EC90E0909379018093780103
:100C600086EC90E090937B0180937A0110927D0155
:100C700010927E0110927F01109280010895CF9210
:100C8000DF92EF92FF920F931F93CF93DF937C013C
:100C90006A01EB0100E010E00C151D0571F069918F
:100CA000D701ED91FC910190F081E02DC7010995EC
:100CB000892B19F00F5F1F4FEFCFC801DF91CF9144
:100CC0001F910F91FF90EF90DF90CF9008956115E5
:100CD000710581F0DB010D900020E9F7AD01415075
:100CE0005109461B570BDC01ED91FC910280F38109
:100CF000E02D099480E090E008950C946706DC01F3
:100D0000ED91FC910190F081E02D09946CE371E08C
:100D10000C9467060F931F93CF93DF93EC010E940F
:100D200067068C01CE010E948606800F911FDF911D
:100D3000CF911F910F9108958F929F92AF92BF9282
:100D4000CF92DF92EF92FF920F931F93CF93DF9397
:100D5000CDB7DEB7A1970FB6F894DEBF0FBECDBFFB
:100D60007C01C42EE52FCB01D22E19A221E02D1536
:100D700010F02AE0D22E8E010F5D1F4F8D2C912C8A
:100D8000A12CB12C6C2D7E2FA50194010E94DC07B3
:100D90008C2DD29E80191124015011098A3014F42F
:100DA000805D01C0895CF801808321153105410512
:100DB000510521F0C22EE32FCA01E4CFB801C701CB
:100DC0000E946706A1960FB6F894DEBF0FBECDBF96
:100DD000DF91CF911F910F91FF90EF90DF90CF9017
:100DE000BF90AF909F908F900895CF92DF92EF9237
:100DF000FF920F931F93CF93DF93EC016A017B0166
:100E00002115310579F4E881F9810190F081E02D17
:100E1000642FDF91CF911F910F91FF90EF90DF90A2
:100E2000CF9009942A303105E9F477FF1AC06DE2BA
:100E30000E947F068C0144275527BA014C195D0991
:100E40006E097F092AE0CE010E949C06800F911F47
:100E5000DF91CF911F910F91FF90EF90DF90CF9096
:100E600008952AE0B701A601CE01DF91CF911F912D
:100E70000F91FF90EF90DF90CF900C949C069A0119
:100E8000AB01662757FD6095762F0C94F506089503
:100E90000E94A1070E9447070E940003C2E8D4E015
:100EA0000E9451032097E1F30E948204F9CF1F9220
:100EB0000F920FB60F9211242F933F938F939F930E
:100EC000AF93BF938091020290910302A09104021C
:100ED000B09105023091010223E0230F2D3720F459
:100EE0000196A11DB11D05C026E8230F0296A11D84
:100EF000B11D209301028093020290930302A093FC
:100F00000402B09305028091060290910702A0911D
:100F10000802B09109020196A11DB11D809306023D
:100F200090930702A0930802B0930902BF91AF917A
:100F30009F918F913F912F910F900FBE0F901F9017
:100F40001895789484B5826084BD84B5816084BD31
:100F500085B5826085BD85B5816085BDEEE6F0E032
:100F6000808181608083E1E8F0E01082808182608E
:100F70008083808181608083E0E8F0E0808181600F
:100F80008083E1EBF0E0808184608083E0EBF0E03F
:100F9000808181608083EAE7F0E0808184608083E3
:100FA000808182608083808181608083808180688D
:100FB00080831092C1000895A1E21A2EAA1BBB1BC8
:100FC000FD010DC0AA1FBB1FEE1FFF1FA217B30715
:100FD000E407F50720F0A21BB30BE40BF50B661F2B
:100FE000771F881F991F1A9469F7609570958095EF
:100FF00090959B01AC01BD01CF010895EE0FFF1F3D
:101000000590F491E02D0994AEE0B0E0EAE0F8E05C
:101010000C94AC0A0D891E8986E08C831A8309839F
:101020008FEF9FE79E838D83AE01475E5F4F6F8991
:10103000788DCE0101960E942608EF81F885E00F99
:10104000F11F10822E96E4E00C94C80AACE0B0E0E8
:10105000ECE2F8E00C949E0A7C016B018A01FC0131
:1010600017821682838181FFBDC1CE0101964C019A
:10107000F7019381F60193FD859193FF81916F01B3
:10108000882309F4ABC1853239F493FD859193FF30
:1010900081916F01853229F4B70190E00E940E0A18
:1010A000E7CF512C312C20E02032A0F48B3269F0B4
:1010B00030F4803259F0833269F420612CC08D32D3
:1010C00039F0803339F4216026C02260246023C0C7
:1010D000286021C027FD27C030ED380F3A3078F462
:1010E00026FF06C0FAE05F9E300D1124532E13C078
:1010F0008AE0389E300D1124332E20620CC08E32CF
:1011000021F426FD6BC1206406C08C3611F42068E2
:1011100002C0883641F4F60193FD859193FF8191D9
:101120006F018111C1CF982F9F7D9554933028F482
:101130000C5F1F4FFFE3F9830DC0833631F0833717
:1011400071F0833509F05BC022C0F801808189838A
:101150000E5F1F4F44244394512C540115C0380195
:10116000F2E06F0E711CF801A080B18026FF03C071
:10117000652D70E002C06FEF7FEFC5012C870E94E4
:10118000030A2C0183012C852F77222E17C03801EA
:10119000F2E06F0E711CF801A080B18026FF03C041
:1011A000652D70E002C06FEF7FEFC5012C870E94B4
:1011B000F8092C012C852068222E830123FC1BC0FA
:1011C000832D90E048165906B0F4B70180E290E014
:1011D0000E940E0A3A94F4CFF50127FC859127FE70
:1011E00081915F01B70190E00E940E0A31103A949C
:1011F000F1E04F1A51084114510471F7E5C08436EB
:1012000011F0893639F5F80127FF07C06081718137
:10121000828193810C5F1F4F08C060817181882794
:1012200077FD8095982F0E5F1F4F2F76B22E97FF78
:1012300009C090958095709561957F4F8F4F9F4F16
:101240002068B22E2AE030E0A4010E94400AA82EB5
:10125000A81844C0853729F42F7EB22E2AE030E04A
:1012600025C0F22FF97FBF2E8F36C1F018F48835D4
:1012700079F0B4C0803719F0883721F0AFC02F2F34
:101280002061B22EB4FE0DC08B2D8460B82E09C033
:1012900024FF0AC09F2F9660B92E06C028E030E0D8
:1012A00005C020E130E002C020E132E0F801B7FEE5
:1012B00007C060817181828193810C5F1F4F06C0DE
:1012C0006081718180E090E00E5F1F4FA4010E9459
:1012D000400AA82EA818FB2DFF77BF2EB6FE0BC024
:1012E0002B2D2E7FA51450F4B4FE0AC0B2FC08C00A
:1012F0002B2D2E7E05C07A2C2B2D03C07A2C01C0FD
:10130000752C24FF0DC0FE01EA0DF11D8081803394
:1013100011F4297E09C022FF06C07394739404C09F
:10132000822F867809F0739423FD13C020FF06C036
:101330005A2C731418F4530C5718732C731468F444
:10134000B70180E290E02C870E940E0A73942C85EE
:10135000F5CF731410F4371801C0312C24FF12C0DC
:10136000B70180E390E02C870E940E0A2C8522FFB3
:1013700017C021FF03C088E590E002C088E790E035
:10138000B7010CC0822F867859F021FD02C080E29F
:1013900001C08BE227FD8DE2B70190E00E940E0AAA
:1013A000A51438F4B70180E390E00E940E0A5A9425
:1013B000F7CFAA94F401EA0DF11D8081B70190E006
:1013C0000E940E0AA110F5CF332009F451CEB701C7
:1013D00080E290E00E940E0A3A94F6CFF7018681EF
:1013E000978102C08FEF9FEF2C96E2E10C94BA0A2E
:1013F000FC010590615070400110D8F780959095E0
:101400008E0F9F1F0895FC016150704001900110E4
:10141000D8F7809590958E0F9F1F08950F931F9377
:10142000CF93DF93182F092FEB018B8181FD03C030
:101430008FEF9FEF20C082FF10C04E815F812C8113
:101440003D81421753077CF4E881F9819F012F5FAA
:101450003F4F39832883108306C0E885F985812FA3
:101460000995892B29F72E813F812F5F3F4F3F83BD
:101470002E83812F902FDF91CF911F910F9108958F
:10148000FA01AA27283051F1203181F1E8946F93B5
:101490006E7F6E5F7F4F8F4F9F4FAF4FB1E03ED05B
:1014A000B4E03CD0670F781F891F9A1FA11D680FF9
:1014B000791F8A1F911DA11D6A0F711D811D911D2C
:1014C000A11D20D009F468943F912AE0269F1124A1
:1014D0003019305D3193DEF6CF010895462F477005
:1014E000405D4193B3E00FD0C9F7F6CF462F4F7060
:1014F000405D4A3318F0495D31FD4052419302D0BE
:10150000A9F7EACFB4E0A695979587957795679563
:10151000BA95C9F700976105710508959B01AC0163
:101520000A2E06945795479537952795BA95C9F78A
:10153000620F731F841F951FA01D08952F923F9265
:101540004F925F926F927F928F929F92AF92BF92D3
:10155000CF92DF92EF92FF920F931F93CF93DF937F
:10156000CDB7DEB7CA1BDB0B0FB6F894DEBF0FBEDC
:10157000CDBF09942A88398848885F846E847D8429
:101580008C849B84AA84B984C884DF80EE80FD802B
:101590000C811B81AA81B981CE0FD11D0FB6F894A1
:0E15A000DEBF0FBECDBFED010895F894FFCF62
:1015AE0000000A0280000001020304050607080974
:1015BE000A0B0C0D0E0FFF52756E6E696E67204191
:1015CE004553002530325820003A2000000000001C
:1015DE00D3043F0655046E046004B1040D0A006E78
:0E15EE00616E00696E66006F7666002E00006A
:00000001FF
